:04080000F7EF0CF012
:08080800046ED8CF05F0E0CF2B
:1008100006F00001E9CF0CF0EACF07F0E1CF08F0D5
:10082000E2CF09F0D9CF0AF0DACF0BF0F3CF12F014
:10083000F4CF13F0FACF14F0F5CF15F0F6CF16F091
:10084000F7CF17F000C00EF001C00FF002C010F09B
:1008500003C011F0F2AA30EF04F0F2B464EF04F038
:100860009DAA36EF04F09EBA8CEF04F00EC000F0A3
:100870000FC001F010C002F011C003F00CC0E9FF7E
:1008800007C0EAFF078E08C0E1FF09C0E2FF0AC007
:10089000D9FF0BC0DAFF12C0F3FF13C0F4FF14C07E
:1008A000FAFF15C0F5FF16C0F6FF17C0F7FF04509A
:1008B00006C0E0FF05C0D8FF1000ECCFFAFFED52F4
:1008C000EFCFE8FFF96E1200D650D7CF03F0040146
:1008D000966FD7CF97F4D00E965F070E975B97C4AD
:1008E000D7FF96C4D6FF0000010E4E26D8B04F2A7F
:1008F000D8B4502AD8B4512AF294000136EF04F04B
:100900009EAAFED7ABCF19F0AECF01F019A202D04C
:10091000AB98AB8899EF04F0540E04015425E96EAE
:10092000000E5521EA6EEACF99F4E9CF98F4000160
:10093000E7D799C4EAFF98C4E9FF01C0EFFF010EB1
:1009400004015425986F000E5521996F98C454F4F2
:100950009951010B556F9E9A000136EF04F0040E79
:10096000EA6E830EE96EEF500EE0140E016E006A1F
:10097000002EFED7012EFBD7BF0E006E002EFED735
:1009800000D0EF2EF2D712008AC48CF489C48BF405
:1009900004018BC4E9FF8CC4EAFF88C4ECFFED526C
:1009A00087C4EFFF020E8B25E96E000E8C21EA6EE4
:1009B000EC6AED52EF6A8BC401F08CC402F00001C6
:1009C0008AEF05F0020E04018325E96E000E8421F2
:1009D000EA6EECCF88F4ED52EFCF87F487530CE149
:1009E00088530AE1020E8525E96E000E8621EA6E23
:1009F000EC6AED52EF6A1BD0020E8525016E000EE7
:100A00008621036E886F020E8325E96E000E842115
:100A1000EA6EECCF03F0ED52EFCF89F488C4EAFF21
:100A200001C0E9FF03C0ECFFED5289C4EFFF020EE5
:100A30008325E96E000E8421EA6E86C4ECFFED5238
:100A400085C4EFFF000197EF05F0040185C4E9FFBD
:100A500086C4EAFF88C4ECFFED5287C4EFFF0001B3
:100A600012001BC07EF41AC07DF404017D5303E123
:100A70007E53D8B48DD07DC4E9FF7EC4EAFFECCFAD
:100A8000A8F4ED52EFCFA7F4A8BF76D07DC4E9FF5C
:100A90007EC4EAFFECCFAAF4ED52EFCFA9F47C516B
:100AA000AA5D6AE303E17B51A95D66E37DC4E9FFCA
:100AB0007EC4EAFFECCF82F4ED52EFCF81F4040E56
:100AC0007B25016E000E7C21036E0350825D42E3A4
:100AD00003E18151015C3EE27B51815DA76F7C5156
:100AE0008259A86F040EA75F000EA85B040E7D2537
:100AF000A96F000E7E21AA6F7B51A9277C51AA23E2
:100B0000A8C488F4A7C487F4AAC48AF4A9C489F441
:100B100000013AD702C080F401C07FF47EC484F49F
:100B20007DC483F480C486F47FC485F44BD704016C
:100B3000AA6BA96B7CC4A8F4800EA8277EC486F497
:100B40007DC485F4A8C488F47BC487F400017DDFEC
:100B500011D00401AA6BA96B82C4A8F4800EA82747
:100B60007EC486F47DC485F4A8C488F481C487F467
:100B700000016BDF04010CD0020E7D25E96E000E32
:100B80007E21EA6EECCF7EF4ED52EFCF7DF46ED78E
:100B90007D5307E17E5305E1000E016E026E08D021
:100BA00007D0040E7D25016E000E7E21036E026EBD
:100BB0000001EAEF05F04EC000F04FC001F050C058
:100BC00002F051C003F0120004017C6B1A0E7B6F1F
:100BD000000147D702C079F401C078F404017A918A
:100BE000785303E17953D8B4F0D078C4E9FF79C4DD
:100BF000EAFF382AD8B4392A39C0ECFFED5238C0A0
:100C0000EFFF020E7825016E000E7921036E01C000
:100C10007BF47C6F6CB106D07CC4EAFF7BC4E9FF37
:100C2000EF9005D07CC4EAFF7BC4E9FFEF80020EA1
:100C30007825016E000E7921036E01C07BF47C6F74
:100C40006E5306E16F5304E1705302E1715302E009
:100C5000010E01D0000EE8B006D07CC4EAFF7BC4D0
:100C6000E9FFEF9205D07CC4EAFF7BC4E9FFEF8285
:100C7000030E7825E96E000E7921EA6E6DC4EFFF50
:100C8000040E7825E96E000E7921EA6E6EC4EFFF3E
:100C90006FC4ECFF70C4ECFF71C4ECFF080E782544
:100CA000016E000E7921036E01C07BF47C6FEA6A4D
:100CB000350EE96E000101DE7CC4EAFF7BC4E9FF6A
:100CC00000C0EFFF01C0ECFF02C0ECFF03C0ECFF6F
:100CD0000C0E04017825E96E000E7921EA6EEF6AA8
:100CE000EC6AEC6AEC6A100E7825E96E000E792148
:100CF000EA6E73C4ECFFED5272C4EFFF120E78255A
:100D0000E96E000E7921EA6EEC6AED52EF6A140E7C
:100D10007825E96E000E7921EA6E77C4ECFFED527A
:100D200076C4EFFF160E7825E96E000E7921EA6E83
:100D3000EC6AED52EF6A180E7825E96E000E792103
:100D4000EA6EEC6AED52EF6A242AD8B4252A2052C2
:100D500002E121521BE0180E7825E96E000E792180
:100D6000EA6E23C0ECFFED5222C0EFFF160E2224E4
:100D7000E96E000E2320EA6E79C4ECFFED5278C4D0
:100D8000EFFF79C423F078C422F008D079C421F0B1
:100D900078C420F079C423F078C422F0745302E1BF
:100DA000755312E078C4E9FF79C4EAFFECCF03F091
:100DB000ED52EFCF7DF475C4EAFF74C4E9FF03C0C0
:100DC000ECFFED527DC4EFFF7A81000E7AB1010E87
:100DD000016E00011200216A206A236A226A256AD4
:100DE000246A2D6A2C6A2F6A2E6A316A306A0401DD
:100DF000685302E1695304E069C436F068C435F011
:100E0000120E036E420E6A6F03C06BF4010E6C6F1C
:100E10006D6B716B706B6F6B6E6F03C073F46AC434
:100E200072F4756B320E746F776B766B0001CCDEEB
:100E3000015082EF0DF0030E926E896A070E936ED9
:100E40008A6A9C0E946E200E8B6E28EF07F0F3D703
:100E5000820ED56EC050C00B2609C06EC08EC280F7
:100E6000C150F00BC16E030E0F01386F000E396FC9
:100E70003A6F016EC250830B0110C26E776A040E86
:100E8000786E796E370ECD6ECC6ABD6A050EBD6E7A
:100E9000B76AB66A010EB96EFC0E4917000E491307
:100EA000130E036EF60E0401676F03C068F4010EA3
:100EB0006C6F6D6F716B706B6F6B640E6E6F03C0D8
:100EC00073F467C472F4756B746B776B766B0001A7
:100ED0007BDE01508FEF0DF004016781F28A9D8463
:100EE0009D8AC00EF212000E67B1010E686F140EDB
:100EF000036E140E696F03C06AF4010E6C6F6D6FA0
:100F0000716B706B030E6F6FE80E6E6F03C073F43E
:100F100069C472F4756B746B776B766B000154DE89
:100F20000401685101146791E8B06781000E67B150
:100F3000010E016E00019CEF0DF0150E036E920E76
:100F40000401676F03C068F4010E6C6F6D6F716B05
:100F5000706B6F6B050E6E6F03C073F467C472F431
:100F6000756B746B776B766B00012EDE0150A9EF09
:100F70000DF0B60E006E036A026A016A0401845124
:100F800085118611871102E1006A0DD0D89001BE4B
:100F900009D08437853786378737033602360136DE
:100FA000002EF4D7019E0001AEEF09F00401885134
:100FB000D8B4A5D0946F8C51D8B4A1D0945F05E378
:100FC0007F0E9427D8B09BD006D0810E945FD8A016
:100FD00096D0D8B494D094C400F0016A026A036A2F
:100FE000936B89C492F4928F8AC491F48BC490F469
:100FF000190E946F8F51905F0DE2010E915F0AE21E
:10100000925F08E2935F06E2932B922B912B8F5114
:10101000902728D08E51915F12E2010E925F0FE26D
:10102000935F0DE2932B922B8E5191278F51902736
:1010300019E3912B17E1922B15E1932B13D08D51CE
:101040008009925F0EE2010E935F0BE2932B8D51AC
:10105000800992278E519127E9E3922BE7E1932BA8
:10106000E5D70380942F01D00BD0D89090379137DB
:1010700092379337D8900336023601369537BAD770
:1010800095A106D0D890013202320332953302D0B6
:10109000000635E095BF1ED0D89090379137923733
:1010A00093378F51905F07E2010E915F04E2925FE8
:1010B00002E2935F1AE38E51915F05E2010E925FA7
:1010C00002E2935F12E38D518009925F03E2010E09
:1010D000935F0BE3032A09E1022A07E1012A05E1F4
:1010E000002A0DE001320232033289C494F48D519A
:1010F000941B94AF02D0018E06D0019E04D0006AEA
:10110000016A026A036A0001C7EF09F0040188510D
:10111000D8B471D0006E8C51D8B46DD0002604E3E1
:10112000810E002668E204D07F0E005E64E363E077
:1011300089C490F48D51901B898F8D8F8B518F03B3
:10114000F4CF92F48A518E03F4CF03F0F3CF91F4ED
:101150008F03F3509227F4509123000E03228B51FA
:101160008E03F3509227F4509123000E026A03225B
:10117000022289518F03F3509127F4500322000E6D
:10118000022289518E03F3500326F4500222000EEE
:10119000016A01228B518D03F3509127F4500322F1
:1011A000000E022201228A518D03F3500326F450CF
:1011B0000222000E012289518D03F3500226F450C1
:1011C0000122002A01BE05D09137033602360136CE
:1011D0000006000E91AF0AD0032A0222012201501C
:1011E00005E1025003E1035001E1002A90BF018EA6
:1011F00090AF019E04D0006A016A026A036A00018E
:10120000E0EF09F08E0E006E04018451005E85C48B
:1012100002F086C401F0028E005209E0D89002521A
:1012200002E1015204E002320132002EF7D785AF0D
:1012300005D0011E021E012AD8B4022A0001E9EFDE
:1012400009F004017B6B7A6B796B786B21C07DF4BC
:1012500020C07CF4EA6A350EE96E00015DEC04F012
:1012600003C081F402C080F401C07FF400C07EF4AA
:101270003A5004017E5F3B507F5B3C50805B3D50A9
:10128000815B0CE180530AE17F510208D8B0B1D0F4
:10129000FF0A04E17E51E708D8B0ABD07C517D1144
:1012A00030E0160E7C25E96E000E7D21EA6EECCF53
:1012B0007DF4ED52EFCF7CF47C517D1122E00C0ED9
:1012C0007C25E96E000E7D21EA6EEFCF00F0ECCFB9
:1012D00001F0ECCF02F0ECCF03F000507827015082
:1012E000792302507A2303507B23160E7C25E96E66
:1012F000000E7D21EA6EECCF7DF4ED52EFCF7CF451
:10130000DBD77B530AE17A5308E1795102080CE2FA
:10131000FF0A03E17851E80807E2E80E006E030EC9
:10132000016E026A036A08D078C400F079C401F043
:101330007AC402F07BC403F003C07BF402C07AF4E9
:1013400001C079F400C078F47BC487F47AC486F4D1
:1013500079C485F478C484F400010BD603C081F409
:1013600002C080F401C07FF400C07EF403C08BF49F
:1013700002C08AF401C089F400C088F404018F6BB4
:101380008E6B7A0E8D6F880E8C6F00010FD603C0A6
:1013900081F402C080F401C07FF400C07EF403C079
:1013A0008BF402C08AF401C089F400C088F40401FF
:1013B0008F6B8E6B480E8D6F850E8C6F0001A6D6DD
:1013C00003C087F402C086F401C085F400C084F431
:1013D00019D701C034F0EA6A350EE96E5DEC04F00D
:1013E00003C03DF002C03CF001C03BF000C03AF049
:1013F00004010001120040A804D0406A899E040044
:1014000008D040B405D040B603D0897E402A01D030
:10141000402A1200010E4726D8B0482AD8B4492ADB
:10142000D8B44A2A12000401876B896B886B8951F2
:10143000865D10E303E18551885D0CE283518825C8
:10144000E96E84518921EA6EEF508727882BD8B442
:10145000892BEDD7875302E1010E01D0000E016EFA
:101460000001EEEF0AF004018D6B8C6B8D518B5DEA
:101470002EE303E18A518C5D2AE28C5188258E6F20
:101480008D5189218F6F86518C25E96E87518D2171
:10149000EA6EEFCF90F4F250006EF29E8FC4AAFF76
:1014A0008EC4A9FF90C4A8FFA69CA69EA6840F0187
:1014B000550EA76EAA0EA76EA682A6B2FED7A69458
:1014C0000050F21204018C2BD8B48D2BCFD7000121
:1014D0007FEF0AF083C45DF4A50E04015E6F040E75
:1014E000856F5D0E846F85C487F4866F030E896FE8
:1014F000FE0E886F8B6B020E8A6F0001B4D712EF5D
:101500000BF004018B6B8D6B8C6B010E895D006E93
:10151000000E8A59036E00C001F08D51035C10E388
:1015200003E101508C5D0CE287518C25E96E8851F6
:101530008D21EA6EEF508B278C2BD8B48D2BE5D7FD
:101540008B51FF0A010F8B6F8BC401F00001120059
:101550009EA8FED7AD6EC2EF0AF00401886B876BC0
:101560008851865D14E303E18551875D10E2835164
:101570008725E96E84518821EA6EEFCF89F489517D
:101580000001E6D70401872BD8B4882BE9D70001E6
:10159000120004017C91555303E15451040811E2F7
:1015A00056A105D054C057F455C058F45691575120
:1015B000545D07E15851555D04E1556B546B7C81D6
:1015C00056817CA1D9D057AE9DD0846B540E836FC9
:1015D00058C486F457C485F4000125D70152D8B405
:1015E00085D056C07AF457507F0B04017B6F796B1E
:1015F000050E786F7AC456F2800E0201576F04010F
:101600007A51F00A000105E0700A4CE0010A5BE043
:101610006CD004017B51000A000101E042D058C0A7
:1016200083F458D70401796B060E786F78C454F2AE
:1016300079C455F2040E0201576F58C058F2010EDA
:101640000401785D7D6F000E79597E6F540E7D2503
:10165000016E020E7E21036E01C07FF4806F020EC8
:10166000886F540E876F79C48AF478C489F40001B6
:1016700048DF80C4EAFF7FC4E9FF01C0EFFF020E2C
:101680000401846F540E836F79C486F478C485F4A2
:10169000000163DF010E0401836F0001AFEC04F071
:1016A000FF0023D004017B5102080BE1796B080E87
:1016B000786F040E0201576F010E586F596B5A6B09
:1016C0000401000112D004017B5102080DE1796B85
:1016D000080E786F040E0201576F010E586F040E4A
:1016E000596F160E5A6F040100010AD00401796B7C
:1016F000050E786F7AC456F2800E0201576F000112
:101700000AD00401796B050E786F7AC456F2800E08
:101710000201576F000178C454F279C455F2010EEA
:101720000401785D7D6F000E79597E6F540E7D2522
:10173000016E020E7E21036E01C07FF4806F020EE7
:10174000886F540E876F79C48AF478C489F40001D5
:10175000D8DE80C4EAFF7FC4E9FF01C0EFFF020EBC
:101760000401846F540E836F79C486F478C485F4C1
:101770000001F3DE17D004015451551110E0592B2C
:10178000D8B45A2B5AC47EF459517D6F880806E1AB
:101790007E51130803E1556B546B568102D05A6B8E
:1017A000596B0001120021C067F420C066F40401E7
:1017B00066516711D8B413D1020E6625E96E000E8A
:1017C0006721EA6EEFA0FFD0100E6625E96E000ECD
:1017D0006721EA6EECCF71F4ED52EFCF70F47053E5
:1017E00003E17153D8B4EFD0036A3750260FE96E86
:1017F000000E0320EA6EEFCF70F4030E6625E96E4B
:10180000000E6721EA6EEF50705DD8A4DCD0EA6A62
:10181000350EE96E00015DEC04F003C06BF402C00C
:101820006AF401C069F400C068F4080E040166257A
:10183000E96E000E6721EA6EEFCF00F0ECCF01F009
:10184000ECCF02F0ECCF03F00050685D6C6F0150FC
:1018500069596D6F02506A596E6F03506B596F6F03
:10186000040E6625E96E000E6721EA6EEFCF00F0E8
:10187000ECCF01F0ECCF02F0ECCF03F003506F5D42
:101880000CE31AE102506E5D08E316E101506D5D54
:1018900004E312E100506C5D0FE2020E6625016E5A
:1018A000000E6721036E01C0E9FFEA6E000EEFB281
:1018B000010E000AD8A487D0080E6625E96E000E36
:1018C0006721EA6E68C4EFFF69C4ECFF6AC4ECFFED
:1018D0006BC4ECFF0C0E6625E96E000E6721EA6E04
:1018E00068C4EFFF69C4ECFF6AC4ECFF6BC4ECFF93
:1018F000100E6625706F000E6721716F66C4E9FFD8
:1019000067C4EAFFECCF60F4ED52EFCF5FF4120E44
:101910006625016E000E6721036E01C074F4756FB9
:10192000140E6625E96E000E6721EA6EECCF64F4B2
:10193000ED52EFCF63F471C4EAFF70C4E9FF03C056
:1019400062F401C061F400015DEC04F00C0E0401CE
:101950006625016E000E6721036E01C070F4716F81
:10196000EA6A350EE96E00015DEC04F003C075F41F
:1019700002C074F401C073F400C072F40C0E0401D0
:101980006625E96E000E6721EA6EEFCF00F0ECCF1E
:1019900001F0ECCF02F0ECCF03F00050725D006E6E
:1019A00001507359016E02507459026E03507559FB
:1019B00071C4EAFF70C4E9FF00C0EFFF01C0ECFF93
:1019C00002C0ECFFEC6E160E6625E96E000E672174
:1019D000EA6EECCF67F4ED52EFCF66F4E9D6372A22
:1019E0003750060801E1376A0001B3EF0DF0F86ADD
:1019F000D09E078E360E006E100E016E020EE96E3E
:101A0000000EEA6EEE6A002EFDD7012EFBD7700E97
:101A1000D36E9B8C9B9E196AB8868A0EAF6E000EA1
:101A2000B06EA60EAC6E900EAB6E94869488CB9082
:101A3000CB92CB96270EC86E280EC66EC79EC79C4B
:101A40000401568122D00600260001000200010395
:101A5000003200000005403200094035000100401E
:101A6000000400470000000004004E0000000002D7
:101A7000045400000204590000030F380000000362
:101A80000F77000000010FD37000000EF86E1A0EE1
:101A9000F76E460EF66E0900F550006E000A13E070
:101AA0000900F550016EE8BE05D03F0BEA6E090053
:101AB000F5CFE9FF01BC090001AC0900F5CFEEFF4D
:101AC000004EE9D7F9D7F86A040E1B6EAB0E1A6EFA
:101AD0000A0EAC6F890EAB6FAE6BAD6B0001FA0EE8
:101AE0000401836F0001AFEC04F00B0E036EB60E21
:101AF0000401666F03C067F403C069F4686F0001F6
:101B0000EBEF06F00401659101B0658165A133D06A
:101B1000000E65B1010E666F000127EF07F00401AA
:101B2000665101146591E8B06581000E65B1010E42
:101B3000666F00016CEF07F00401665101146591B6
:101B4000E8B06581000E65B1010E666F00019DEF82
:101B500007F00401665101146591E8B0658165A143
:101B600005D0000120D6FED704D00401898EFFD70E
:0E1B7000000104D00401898EFFD7000103009C
:020000040030CA
:0E00000000E8003C00AF85000FC00FE00F408D
:00000001FF
;PIC18F26K22
;CRC=C347  CREATED="05-Apr-22 16:19"
