:04000000AFEF02F06C
:0800080004EF04F000011200F6
:0800180009EF04F000011200E1
:1000200004011E6B1D6B1E511C5D22E303E11B517D
:100030001D5D1EE217511D25E96E18511E21EA6E45
:100040001D511925216F1E511A21226FF2CF23F461
:10005000F29E22C4AAFF21C4A9FFA69CA69EA68048
:10006000A85023BFF28EEF6E1D2BD8B41E2BDBD70A
:1000700000014CEF00F0040E0401166F120E156F14
:1000800016C418F4176F030E1A6FFE0E196F1C6B4F
:10009000020E1B6F0001C4D704011351A50803E031
:1000A000020E016E11D01251000A000103E0010A94
:1000B00001E006D0040112C401F006D005D0000111
:1000C000020E016E040100D00001DAEF02F09EAAD8
:1000D000FED7ABCF04F0AECF01F004A202D0AB98B4
:1000E000AB88F4EF02F004011E6B206B1F6B2051F4
:1000F0001D5D10E303E11C511F5D0CE21A511F2529
:10010000E96E1B512021EA6EEF501E271F2BD8B439
:10011000202BEDD71E5302E1010E01D0000E016E1F
:100120000001A0EF01F0F250036EF29EA68EA684AD
:100130000F01550EA76EAA0EA76EA68200000350EF
:10014000F21200011200A69CF6503F0B006EC00E8A
:10015000F6160A001DC402F01CC401F000660BD0A4
:10016000EECFF5FF016602D0025206E00F00010655
:10017000D8A0020603D000060B000C003F0EF614B8
:100180003F0AECE1A688CFDFCEDF0266E7D7016643
:10019000E5D7F86AE6EF01F00401246B236B2451E4
:1001A000225D2EE303E12151235D2AE223511F2525
:1001B000256F24512021266F1D512325E96E1E51E4
:1001C0002421EA6EEFCF27F4F250006EF29E26C48F
:1001D000AAFF25C4A9FF27C4A8FFA69CA69EA684A3
:1001E0000F01550EA76EAA0EA76EA682A6B2FED765
:1001F000A6940050F2120401232BD8B4242BCFD79D
:10020000000118EF01F01AC412F4A50E0401136FD7
:10021000040E1C6F120E1B6F1CC41EF41D6F030E08
:10022000206FFE0E1F6F226B020E216F0001B4D7EC
:10023000FEEF01F00401226B246B236B010E205DA5
:10024000006E000E2159036E00C001F02451035CC2
:1002500010E303E10150235D0CE21E512325E96EFA
:100260001F512421EA6EEF502227232BD8B4242BD0
:10027000E5D72251FF0A010F226F22C401F00001CD
:1002800012009EA8FED7AD6E5BEF01F004011F6B5C
:100290001E6B1F511D5D14E303E11C511E5D10E236
:1002A0001A511E25E96E1B511F21EA6EEFCF20F473
:1002B00020510001E6D704011E2BD8B41F2BE9D72B
:1002C00000011200040EEA6E1A0EE96EEF500EE005
:1002D000140E016E006A002EFED7012EFBD7BF0E52
:1002E000006E002EFED700D0EF2EF2D73BEF02F0CB
:1002F0000401156B166B1991065304E105510408AE
:10030000D8B02AD107A105D005C008F406C009F469
:1003100007910851055D07E10951065D04E1066B8F
:10032000056B1981078119A117D108AED9D01B6BB4
:10033000050E1A6F09C41DF408C41CF40001D3D6BD
:100340000152D8B4BED007C017F408507F0B040187
:10035000186F166B050E156F17C407F2800E020199
:10036000086F04011751F00A000107E0700AD8B4C1
:1003700084D0010AD8B492D0A3D004011851040A41
:10038000000103E0040A37E077D0095005E0010AD4
:1003900021E0050A21E024D00CC00FF40BC00EF4BC
:1003A00004011051300802E1115312E00AC01AF49E
:1003B00010C4F8FF0FC4F7FF0EC4F6FFEA6A0D0E73
:1003C000E96E1D6B0AC01CF40001BDD6897E0401D4
:1003D000000106D0899E04D00DC011F40EC010F4A7
:1003E0000401166B060E156F09C009F2040E020116
:1003F000086F000141D009C01AF405D70401166B3B
:10040000060E156F15C405F216C406F2040E02019D
:10041000086F09C009F2010E0401155D1A6F000E84
:1004200016591B6F050E1A25016E020E1B21036E55
:1004300001C01CF41D6F020E1F6F050E1E6F16C447
:1004400021F415C420F40001F5DE1DC4EAFF1CC42C
:10045000E9FF01C0EFFF020E04011B6F050E1A6FCA
:1004600016C41DF415C41CF4000110DF010E0401B4
:100470001A6F000127D7FF0023D00401185102088A
:100480000BE1166B080E156F040E0201086F096B65
:100490000A6B010E0B6F0401000112D00401185108
:1004A00002080DE1166B080E156F040E0201086FAD
:1004B000010E096F040E0A6F160E0B6F0401000186
:1004C0000DD00401066B056B0781166B050E156FC9
:1004D00017C407F2800E0201086F00010DD004015D
:1004E000066B056B0781166B050E156F17C407F2B7
:1004F000800E0201086F000115C405F216C406F251
:10050000010E0401155D1A6F000E16591B6F050EC2
:100510001A25016E020E1B21036E01C01CF41D6F13
:10052000020E1F6F050E1E6F16C421F415C420F4B1
:10053000000180DE1DC4EAFF1CC4E9FF01C0EFFF1B
:10054000020E04011B6F050E1A6F16C41DF415C4AC
:100550001CF400019BDE0401000108EF03F0F86ABF
:10056000D09E700ED36E9B8C9B9E046AB8868A0EBA
:10057000AF6E000EB06EA60EAC6E900EAB6E0401A8
:10058000066B056B0781086B096B0A6B0B6B0C6BB9
:100590000D6B0E6B0F6B106B116B700ED36E9B8C13
:1005A0009B9E0F01386B396B3A6B776A786A796A70
:1005B000000161D501C014F40401142D05D000011F
:1005C00000EF04F000010401929E898E9EAA1ED0C5
:1005D000050E0525E96E000E0621EA6EEACF18F435
:1005E000E9CF17F4000173D518C4EAFF17C4E9FF77
:1005F00001C0EFFF010E04010525156F000E062155
:10060000166F15C405F41651010B066F000170D664
:060610000401DCD7030029
:0200000400F00A
:0203FE0000A558
:020000040030CA
:0E00000000E8003C00AF85000F800FE00F40CD
:00000001FF
;PIC18F26K22
;CRC=4C67  CREATED="05-Apr-22 16:05"
